{
  "_format": "hh-sol-artifact-1",
  "contractName": "Twitter",
  "sourceName": "contracts/Twitter.sol",
  "abi": [
    {
      "inputs": [
        {
          "internalType": "bytes32",
          "name": "_text",
          "type": "bytes32"
        }
      ],
      "name": "createTweet",
      "outputs": [],
      "stateMutability": "nonpayable",
      "type": "function"
    },
    {
      "inputs": [
        {
          "internalType": "uint256",
          "name": "_ind",
          "type": "uint256"
        }
      ],
      "name": "deleteTweet",
      "outputs": [],
      "stateMutability": "nonpayable",
      "type": "function"
    },
    {
      "inputs": [],
      "name": "retrieve",
      "outputs": [
        {
          "components": [
            {
              "internalType": "address",
              "name": "user",
              "type": "address"
            },
            {
              "internalType": "bytes32",
              "name": "text",
              "type": "bytes32"
            }
          ],
          "internalType": "struct Twitter.Tweet[]",
          "name": "",
          "type": "tuple[]"
        }
      ],
      "stateMutability": "view",
      "type": "function"
    },
    {
      "inputs": [
        {
          "internalType": "bytes32",
          "name": "_newText",
          "type": "bytes32"
        },
        {
          "internalType": "uint256",
          "name": "_ind",
          "type": "uint256"
        }
      ],
      "name": "updateTweet",
      "outputs": [],
      "stateMutability": "nonpayable",
      "type": "function"
    }
  ],
  "bytecode": "0x608060405234801561001057600080fd5b50610a74806100206000396000f3fe608060405234801561001057600080fd5b506004361061004c5760003560e01c80632e64cec1146100515780633af7d02a1461006f5780635775912a1461008b5780635bf2978c146100a7575b600080fd5b6100596100c3565b6040516100669190610813565b60405180910390f35b610089600480360381019061008491906106c8565b610182565b005b6100a560048036038101906100a09190610704565b610328565b005b6100c160048036038101906100bc919061069f565b6105c9565b005b60606000805480602002602001604051908101604052809291908181526020016000905b8282101561017957838290600052602060002090600202016040518060400160405290816000820160009054906101000a900473ffffffffffffffffffffffffffffffffffffffff1673ffffffffffffffffffffffffffffffffffffffff1673ffffffffffffffffffffffffffffffffffffffff168152602001600182015481525050815260200190600101906100e7565b50505050905090565b803373ffffffffffffffffffffffffffffffffffffffff16600082815481106101d4577f4e487b7100000000000000000000000000000000000000000000000000000000600052603260045260246000fd5b906000526020600020906002020160000160009054906101000a900473ffffffffffffffffffffffffffffffffffffffff1673ffffffffffffffffffffffffffffffffffffffff161461025c576040517f08c379a000000000000000000000000000000000000000000000000000000000815260040161025390610835565b60405180910390fd5b60405180604001604052803373ffffffffffffffffffffffffffffffffffffffff16815260200184815250600083815481106102c1577f4e487b7100000000000000000000000000000000000000000000000000000000600052603260045260246000fd5b906000526020600020906002020160008201518160000160006101000a81548173ffffffffffffffffffffffffffffffffffffffff021916908373ffffffffffffffffffffffffffffffffffffffff16021790555060208201518160010155905050505050565b803373ffffffffffffffffffffffffffffffffffffffff166000828154811061037a577f4e487b7100000000000000000000000000000000000000000000000000000000600052603260045260246000fd5b906000526020600020906002020160000160009054906101000a900473ffffffffffffffffffffffffffffffffffffffff1673ffffffffffffffffffffffffffffffffffffffff1614610402576040517f08c379a00000000000000000000000000000000000000000000000000000000081526004016103f990610835565b60405180910390fd5b60008290505b600160008054905061041a91906108f5565b811015610544576000600182610430919061089f565b81548110610467577f4e487b7100000000000000000000000000000000000000000000000000000000600052603260045260246000fd5b9060005260206000209060020201600082815481106104af577f4e487b7100000000000000000000000000000000000000000000000000000000600052603260045260246000fd5b90600052602060002090600202016000820160009054906101000a900473ffffffffffffffffffffffffffffffffffffffff168160000160006101000a81548173ffffffffffffffffffffffffffffffffffffffff021916908373ffffffffffffffffffffffffffffffffffffffff16021790555060018201548160010155905050808061053c9061096f565b915050610408565b50600080548061057d577f4e487b7100000000000000000000000000000000000000000000000000000000600052603160045260246000fd5b6001900381819060005260206000209060020201600080820160006101000a81549073ffffffffffffffffffffffffffffffffffffffff02191690556001820160009055505090555050565b600060405180604001604052803373ffffffffffffffffffffffffffffffffffffffff16815260200183815250908060018154018082558091505060019003906000526020600020906002020160009091909190915060008201518160000160006101000a81548173ffffffffffffffffffffffffffffffffffffffff021916908373ffffffffffffffffffffffffffffffffffffffff16021790555060208201518160010155505050565b60008135905061068481610a10565b92915050565b60008135905061069981610a27565b92915050565b6000602082840312156106b157600080fd5b60006106bf84828501610675565b91505092915050565b600080604083850312156106db57600080fd5b60006106e985828601610675565b92505060206106fa8582860161068a565b9150509250929050565b60006020828403121561071657600080fd5b60006107248482850161068a565b91505092915050565b600061073983836107e4565b60408301905092915050565b61074e81610929565b82525050565b600061075f82610865565b610769818561087d565b935061077483610855565b8060005b838110156107a557815161078c888261072d565b975061079783610870565b925050600181019050610778565b5085935050505092915050565b6107bb8161093b565b82525050565b60006107ce60158361088e565b91506107d9826109e7565b602082019050919050565b6040820160008201516107fa6000850182610745565b50602082015161080d60208501826107b2565b50505050565b6000602082019050818103600083015261082d8184610754565b905092915050565b6000602082019050818103600083015261084e816107c1565b9050919050565b6000819050602082019050919050565b600081519050919050565b6000602082019050919050565b600082825260208201905092915050565b600082825260208201905092915050565b60006108aa82610965565b91506108b583610965565b9250827fffffffffffffffffffffffffffffffffffffffffffffffffffffffffffffffff038211156108ea576108e96109b8565b5b828201905092915050565b600061090082610965565b915061090b83610965565b92508282101561091e5761091d6109b8565b5b828203905092915050565b600061093482610945565b9050919050565b6000819050919050565b600073ffffffffffffffffffffffffffffffffffffffff82169050919050565b6000819050919050565b600061097a82610965565b91507fffffffffffffffffffffffffffffffffffffffffffffffffffffffffffffffff8214156109ad576109ac6109b8565b5b600182019050919050565b7f4e487b7100000000000000000000000000000000000000000000000000000000600052601160045260246000fd5b7f596f7520617265206e6f7420746865206f776e65720000000000000000000000600082015250565b610a198161093b565b8114610a2457600080fd5b50565b610a3081610965565b8114610a3b57600080fd5b5056fea264697066735822122070f9e1fcc5361bebd8677647d33c005fc017a97b3454839d85fa619a8516c52564736f6c63430008040033",
  "linkReferences": {},
  "deployedLinkReferences": {}
}